secret = 21000000

privatekey = 21000000 * G = P

scriptPubKey_asm: <pubkey> OP_CHECKSIG

TERMINAL
--------------
>>> import coincurve
>>> hex(21000000)
'0x1406f40'
>>> privkey = bytes.fromhex('01406f40')
>>> g_point = coincurve.PrivateKey.from_int(1)
>>> g_point.public_key.format().hex()
'0279be667ef9dcbbac55a06295ce870b07029bfcdb2dce28d959f2815b16f81798'
>>> pubkey = g_point.multiply(privkey)
>>> pubkey.public_key.format().hex()
'02e79c4eb45764bd015542f6779cc70fef44b7a2432f839264768288efab886291'
---------------

compressed_publickey = 02e79c4eb45764bd015542f6779cc70fef44b7a2432f839264768288efab886291

scriptPubKey = 
21 02e79c4eb45764bd015542f6779cc70fef44b7a2432f839264768288efab886291 ac

1:
02000000
01
77d0b0da24feb90fdf12222c0f49c5ea0c5baa57b5122a84537852a3965f2cf801
00000000
ffffffff
01
7011010000000000
160014dce70742a7549d81152dada8873cb90782376d83
00000000

2:
020000000177d0b0da24feb90fdf12222c0f49c5ea0c5baa57b5122a84537852a3965f2cf80100000000ffffffff017011010000000000160014dce70742a7549d81152dada8873cb90782376d8300000000

3:
02000000
0001
01
77d0b0da24feb90fdf12222c0f49c5ea0c5baa57b5122a84537852a3965f2cf8
01000000
00
ffffffff
01
7011010000000000
160014dce70742a7549d81152dada8873cb90782376d83
02
  47
304402201caca3b08d725f36eb18335092b46b374ddce12635247c16d71d8339d144b68302200aba6e5114f27ae42b1073374c663bb84ce67be1bbbfc1a7cd181a7a434b4aaa01
  21
  0309f8c5c06282ea58380ecbb9b8e4fd1e8d5f1cd175ebf5bd504efbb60a85b91a
00000000

4:
0200000000010177d0b0da24feb90fdf12222c0f49c5ea0c5baa57b5122a84537852a3965f2cf80100000000ffffffff017011010000000000160014dce70742a7549d81152dada8873cb90782376d830247304402201caca3b08d725f36eb18335092b46b374ddce12635247c16d71d8339d144b68302200aba6e5114f27ae42b1073374c663bb84ce67be1bbbfc1a7cd181a7a434b4aaa01210309f8c5c06282ea58380ecbb9b8e4fd1e8d5f1cd175ebf5bd504efbb60a85b91a00000000

5:
d4d2dd6313ae0706ae42ab3ff57785d4f507c73f1b0835b6ebaccca2ff91cc72

TX to be hashed into message
01000000
01
  72cc91ffa2ccacebb635081b3fc707f5d48577f53fab42ae0607ae1363ddd2d4
  00000000
  160014dce70742a7549d81152dada8873cb90782376d83
  feffffff
01
  0001010000000000
  16 0014fb247f8eaaddb3fd92d7e34bc4ccd45b513de36b
00000000

010000000172cc91ffa2ccacebb635081b3fc707f5d48577f53fab42ae0607ae1363ddd2d400000000160014dce70742a7549d81152dada8873cb90782376d83feffffff010001010000000000160014fb247f8eaaddb3fd92d7e34bc4ccd45b513de36b00000000


TERMINAL
---------------
>>> digest = bytes.fromhex('010000000172cc91ffa2ccacebb635081b3fc707f5d48577f53fab42ae0607ae1363ddd2d400000000160014dce70742a7549d81152dada8873cb90782376d83feffffff010001010000000000160014fb247f8eaaddb3fd92d7e34bc4ccd45b513de36b00000000')
>>> msg = hashlib.sha256(hashlib.sha256(digest).digest()).digest()
>>> msg.hex()
'207e7c92d81d97d6a4c3a5658f4ee0ad98a9ed5479e8d52a759e4ff109e17117'
>>> privkey.sign(msg, hasher=None).hex()
'3045022100f7eafd021c3e8e467b3ba51532915e96ad1b94c359f8f6f5e2b8d7e1bd9a5c9d022076b46f0ea8afff960875c1575df2fb1e519af131b5f9b8cb89f9b1edc08681b6'
>>> 
----------------

message = 207e7c92d81d97d6a4c3a5658f4ee0ad98a9ed5479e8d52a759e4ff109e17117

sig = 3045022100f7eafd021c3e8e467b3ba51532915e96ad1b94c359f8f6f5e2b8d7e1bd9a5c9d022076b46f0ea8afff960875c1575df2fb1e519af131b5f9b8cb89f9b1edc08681b6

sig_with_len = 47 3045022100f7eafd021c3e8e467b3ba51532915e96ad1b94c359f8f6f5e2b8d7e1bd9a5c9d022076b46f0ea8afff960875c1575df2fb1e519af131b5f9b8cb89f9b1edc08681b6

TX2:
01000000
01
  72cc91ffa2ccacebb635081b3fc707f5d48577f53fab42ae0607ae1363ddd2d4
  00000000
48 473045022100f7eafd021c3e8e467b3ba51532915e96ad1b94c359f8f6f5e2b8d7e1bd9a5c9d022076b46f0ea8afff960875c1575df2fb1e519af131b5f9b8cb89f9b1edc08681b6
  feffffff
01
  0001010000000000
  16 0014fb247f8eaaddb3fd92d7e34bc4ccd45b513de36b
00000000

010000000172cc91ffa2ccacebb635081b3fc707f5d48577f53fab42ae0607ae1363ddd2d40000000048473045022100f7eafd021c3e8e467b3ba51532915e96ad1b94c359f8f6f5e2b8d7e1bd9a5c9d022076b46f0ea8afff960875c1575df2fb1e519af131b5f9b8cb89f9b1edc08681b6feffffff010001010000000000160014fb247f8eaaddb3fd92d7e34bc4ccd45b513de36b00000000

d4d2dd6313ae0706ae42ab3ff57785d4f507c73f1b0835b6ebaccca2ff91cc72

tb1qlvj8lr42mkelmykhud9ufnx5tdgnmcmtvccans