secret = 731732733734

privatekey = 731732733734 * G = P

scriptPubKey_asm: <pubkey> OP_CHECKSIG

TERMINAL
--------------
>>> import coincurve
>>> hex(731732733734)
'0xaa5eab6f26'
>>> privkey = bytes.fromhex('aa5eab6f26')
>>> g_point = coincurve.PrivateKey.from_int(1)
>>> g_point.public_key.format().hex()
'0279be667ef9dcbbac55a06295ce870b07029bfcdb2dce28d959f2815b16f81798'
>>> pubkey = g_point.multiply(privkey)
>>> pubkey.public_key.format().hex()
'028206460c831cb76424d0e46c1ec6680b37f105e91913f2cae8c8cf0cb0921e14'
>>> 
---------------

compressed_publickey = 028206460c831cb76424d0e46c1ec6680b37f105e91913f2cae8c8cf0cb0921e14

scriptPubKey: 
21 028206460c831cb76424d0e46c1ec6680b37f105e91913f2cae8c8cf0cb0921e14 ac



1:
01000000
01
  24b20610cac32d3b0c59b25f7559aa68ca7abec9f28d3e02d16868e3b6f4d21d
  00000000
  00ade9e790b4a136b18c1fef635c3d430557fee1a86e31e4ac72cae356167c41b3
  feffffff
01
  7011010000000000
  23 21028206460c831cb76424d0e46c1ec6680b37f105e91913f2cae8c8cf0cb0921e14ac
00000000

2:
010000000124b20610cac32d3b0c59b25f7559aa68ca7abec9f28d3e02d16868e3b6f4d21d0000000000feffffff0170110100000000002321028206460c831cb76424d0e46c1ec6680b37f105e91913f2cae8c8cf0cb0921e14ac00000000

3:

*used bitcoin-cli signrawtransactionwithwallet*

01000000
0001
01
  24b20610cac32d3b0c59b25f7559aa68ca7abec9f28d3e02d16868e3b6f4d21d
  00000000
  00
  feffffff
01
7011010000000000
2321028206460c831cb76424d0e46c1ec6680b37f105e91913f2cae8c8cf0cb0921e14ac
02
47
3044022012ab686360b8eae6ec13afa2d4a9060039fc06928330251ff00ebf81413ad26f02203e429e6748926dfbd6c69374d67950e6026ec5cc578700d90d1bb2d5102db1e10121
038f0e329a0fdfcbd11cde5902bf32f7430301a50d74d95cf626628453b03a44fe
00000000

4:
0100000000010124b20610cac32d3b0c59b25f7559aa68ca7abec9f28d3e02d16868e3b6f4d21d0000000000feffffff0170110100000000002321028206460c831cb76424d0e46c1ec6680b37f105e91913f2cae8c8cf0cb0921e14ac02473044022012ab686360b8eae6ec13afa2d4a9060039fc06928330251ff00ebf81413ad26f02203e429e6748926dfbd6c69374d67950e6026ec5cc578700d90d1bb2d5102db1e10121038f0e329a0fdfcbd11cde5902bf32f7430301a50d74d95cf626628453b03a44fe00000000

5:
ccfba5bf32f5d98b3eb486563e90f8f4ea3f07d7547e104310e58d5ed4b92e13


creating signature

TX to be hashed into message
version: 01000000
01
  txid: 132eb9d45e8de51043107e54d7073feaf4f8903e5686b43e8bd9f532bfa5fbcc
  vout: 00000000
  sciptPubKey:23 21028206460c831cb76424d0e46c1ec6680b37f105e91913f2cae8c8cf0cb0921e14ac
  sequence: feffffff
01
  amount: 1001010000000000
  scriptPubKey: 23 21028206460c831cb76424d0e46c1ec6680b37f105e91913f2cae8c8cf0cb0921e14ac
locktime: 00000000
scriptHash: 01000000

TX to be hashed into message (BLOB)

0100000001132eb9d45e8de51043107e54d7073feaf4f8903e5686b43e8bd9f532bfa5fbcc000000002321028206460c831cb76424d0e46c1ec6680b37f105e91913f2cae8c8cf0cb0921e14acfeffffff0110010100000000002321028206460c831cb76424d0e46c1ec6680b37f105e91913f2cae8c8cf0cb0921e14ac0000000001000000

TERMINAL
------------
>>> digest = bytes.fromhex('0100000001132eb9d45e8de51043107e54d7073feaf4f8903e5686b43e8bd9f532bfa5fbcc000000002321028206460c831cb76424d0e46c1ec6680b37f105e91913f2cae8c8cf0cb0921e14acfeffffff0110010100000000002321028206460c831cb76424d0e46c1ec6680b37f105e91913f2cae8c8cf0cb0921e14ac0000000001000000')
>>> import hashlib
>>> msg = hashlib.sha256(hashlib.sha256(digest).digest()).digest()
>>> msg.hex()
'a030f66c2296bccd36ff603f600c0ac1542ac73ef5b2f250eaad3186e2598855'
>>> import coincurve
>>> privkey = coincurve.PrivateKey.from_int(731732733734)
>>> privkey.sign(msg, hasher=None).hex()
'304402201a651d4d107977ceb4155eadd322075c05cd080281573bc45c4a4f9a895d642802206b80f712e994eda57c3c29bcd3318ed52fffc91711e2f931ff6aa5a0bfec404f'
>>> 
------------------

message = a030f66c2296bccd36ff603f600c0ac1542ac73ef5b2f250eaad3186e2598855

signature = 304402201a651d4d107977ceb4155eadd322075c05cd080281573bc45c4a4f9a895d642802206b80f712e994eda57c3c29bcd3318ed52fffc91711e2f931ff6aa5a0bfec404f

signature_with_len = 46 304402201a651d4d107977ceb4155eadd322075c05cd080281573bc45c4a4f9a895d642802206b80f712e994eda57c3c29bcd3318ed52fffc91711e2f931ff6aa5a0bfec404f


TX2
version: 01000000
01
  txid: 132eb9d45e8de51043107e54d7073feaf4f8903e5686b43e8bd9f532bfa5fbcc
  vout: 00000000
  sciptSig: 47 46304402201a651d4d107977ceb4155eadd322075c05cd080281573bc45c4a4f9a895d642802206b80f712e994eda57c3c29bcd3318ed52fffc91711e2f931ff6aa5a0bfec404f
  sequence: feffffff
01
  amount: 1001010000000000
  scriptPubKey: 22 2103402ea24648ee96df84073a0b468e377d8c4c5e09eba8184ef4eaa9e3d56a3502
locktime: 00000000

0100000001132eb9d45e8de51043107e54d7073feaf4f8903e5686b43e8bd9f532bfa5fbcc000000004846304402201a651d4d107977ceb4155eadd322075c05cd080281573bc45c4a4f9a895d642802206b80f712e994eda57c3c29bcd3318ed52fffc91711e2f931ff6aa5a0bfec404ffeffffff011001010000000000222103402ea24648ee96df84073a0b468e377d8c4c5e09eba8184ef4eaa9e3d56a350200000000



02000000
01
  132eb9d45e8de51043107e54d7073feaf4f8903e5686b43e8bd9f532bfa5fbcc
  00000000
  00
  feffffff
01
  e803000000000000
  160014de5e973c7dc7c96a0163918a6c6705c384a57f39
00000000

0200000001132eb9d45e8de51043107e54d7073feaf4f8903e5686b43e8bd9f532bfa5fbcc0000000000feffffff01e803000000000000160014de5e973c7dc7c96a0163918a6c6705c384a57f3900000000


02000000
01
132eb9d45e8de51043107e54d7073feaf4f8903e5686b43e8bd9f532bfa5fbcc
00000000
scriptSig:
  len: 4847
  flag+lowS: 304402
  r: 200119a42fba20cdf7918f04c30f1c9bb1971a341204cf09934c3ae8dcf8d7c8f502
  s: 20
1e138d7c187f94ab5620f1fe88bf798ce0bb334aacbcbd19c41f5618936be47601
feffffff
01
e803000000000000
160014de5e973c7dc7c96a0163918a6c6705c384a57f39
00000000

0200000001132eb9d45e8de51043107e54d7073feaf4f8903e5686b43e8bd9f532bfa5fbcc000000004847304402200119a42fba20cdf7918f04c30f1c9bb1971a341204cf09934c3ae8dcf8d7c8f502201e138d7c187f94ab5620f1fe88bf798ce0bb334aacbcbd19c41f5618936be47601feffffff01e803000000000000160014de5e973c7dc7c96a0163918a6c6705c384a57f3900000000



generated from https://learnmeabitcoin.com/technical/wif
WIF encoded key = cMahea7zqjxrtgAbB7LSGbcQUr1uX1ojuat9jZyCWWi7XTtKpqm9

=============

08:37:26
￼
signrawtransactionwithkey(…)


08:37:26
￼
{
  "hex": "0200000001132eb9d45e8de51043107e54d7073feaf4f8903e5686b43e8bd9f532bfa5fbcc000000004847304402200119a42fba20cdf7918f04c30f1c9bb1971a341204cf09934c3ae8dcf8d7c8f502201e138d7c187f94ab5620f1fe88bf798ce0bb334aacbcbd19c41f5618936be47601feffffff01e803000000000000160014de5e973c7dc7c96a0163918a6c6705c384a57f3900000000",
  "complete": true
}



18:22:39
￼
sendrawtransaction 0200000001132eb9d45e8de51043107e54d7073feaf4f8903e5686b43e8bd9f532bfa5fbcc000000004847304402200119a42fba20cdf7918f04c30f1c9bb1971a341204cf09934c3ae8dcf8d7c8f502201e138d7c187f94ab5620f1fe88bf798ce0bb334aacbcbd19c41f5618936be47601feffffff01e803000000000000160014de5e973c7dc7c96a0163918a6c6705c384a57f3900000000


18:22:39
￼
11ea440701ba0ed49b0cc8727ec1ed8806fc82b16c7774ad554e03ba628b8bb4
