secret = 888

privatekey = 888 * G = P

scriptPubKey_asm: <pubkey> OP_CHECKSIG

TERMINAL
--------------
>>> import coincurve
>>> hex(888)
'0x378'
>>> privkey = bytes.fromhex('0378')
>>> g_point = coincurve.PrivateKey.from_int(1)
>>> g_point.public_key.format().hex()
'0279be667ef9dcbbac55a06295ce870b07029bfcdb2dce28d959f2815b16f81798'
>>> pubkey = g_point.multiply(privkey)
>>> pubkey.public_key.format().hex()
'03c8edf725b59d9f370870a5dcd5e70b0baea493a5b85cb227c1ef6a8e8cdad8fb'
---------------

compressed_publickey = 03c8edf725b59d9f370870a5dcd5e70b0baea493a5b85cb227c1ef6a8e8cdad8fb

scriptPubKey: 
21 03c8edf725b59d9f370870a5dcd5e70b0baea493a5b85cb227c1ef6a8e8cdad8fb ac



1:
01000000
01
  c687fa3fb43f861f5ae74c3b6bc342bc9d47b51d47fecba405704973271d6ad8
  01000000
  00
  feffffff
01
  401f000000000000
  23 2103c8edf725b59d9f370870a5dcd5e70b0baea493a5b85cb227c1ef6a8e8cdad8fbac
00000000

2:
0100000001c687fa3fb43f861f5ae74c3b6bc342bc9d47b51d47fecba405704973271d6ad80100000000feffffff01401f000000000000232103c8edf725b59d9f370870a5dcd5e70b0baea493a5b85cb227c1ef6a8e8cdad8fbac00000000

3:

*used bitcoin-cli signrawtransactionwithwallet*

01000000
0001
01
  c687fa3fb43f861f5ae74c3b6bc342bc9d47b51d47fecba405704973271d6ad8
  0100000000
  feffffff
01
  401f000000000000
  23 2103c8edf725b59d9f370870a5dcd5e70b0baea493a5b85cb227c1ef6a8e8cdad8fbac
witness_stacks:
02
  47
  304402203f6d455d556b79f565fb5e275be2dc78790afd85070a572a3c8df1ab0679
  14330220552db08449fc55f71764adc2a7c06a84f84719649ac78496da6d12d813111b5f0121
  02184b7ca2a13ecd4b48a1397d0aae99cd78c6d7f628fc05e05d71b02233b4a1c6
00000000

4:
01000000000101c687fa3fb43f861f5ae74c3b6bc342bc9d47b51d47fecba405704973271d6ad80100000000feffffff01401f000000000000232103c8edf725b59d9f370870a5dcd5e70b0baea493a5b85cb227c1ef6a8e8cdad8fbac0247304402203f6d455d556b79f565fb5e275be2dc78790afd85070a572a3c8df1ab067914330220552db08449fc55f71764adc2a7c06a84f84719649ac78496da6d12d813111b5f012102184b7ca2a13ecd4b48a1397d0aae99cd78c6d7f628fc05e05d71b02233b4a1c600000000

5:
ed2a773c4bdfdb48f86d74235dc4640a5a0d90ed6f0311b1cfdff1cb932984a6


creating signature

TX to be hashed into message
version: 01000000
01
  txid: a6842993cbf1dfcfb111036fed900d5a0a64c45d23746df848dbdf4b3c772aed
  vout: 00000000
  sciptPubKey:23 2103c8edf725b59d9f370870a5dcd5e70b0baea493a5b85cb227c1ef6a8e8cdad8fbac
  sequence: feffffff
01
  amount: 101e000000000000
  scriptPubKey: 23 2103c8edf725b59d9f370870a5dcd5e70b0baea493a5b85cb227c1ef6a8e8cdad8fbac
locktime: 00000000
scriptHash: 01000000

TX to be hashed into message (BLOB)

0100000001a6842993cbf1dfcfb111036fed900d5a0a64c45d23746df848dbdf4b3c772aed00000000232103c8edf725b59d9f370870a5dcd5e70b0baea493a5b85cb227c1ef6a8e8cdad8fbacfeffffff01101e000000000000232103c8edf725b59d9f370870a5dcd5e70b0baea493a5b85cb227c1ef6a8e8cdad8fbac0000000001000000

TERMINAL
------------
>>> digest = bytes.fromhex('0100000001a6842993cbf1dfcfb111036fed900d5a0a64c45d23746df848dbdf4b3c772aed00000000232103c8edf725b59d9f370870a5dcd5e70b0baea493a5b85cb227c1ef6a8e8cdad8fbacfeffffff01101e000000000000232103c8edf725b59d9f370870a5dcd5e70b0baea493a5b85cb227c1ef6a8e8cdad8fbac0000000001000000')
>>> msg = hashlib.sha256(hashlib.sha256(digest).digest()).digest()
>>> msg.hex()
'9e7ab8c65790f4026b5c1dd1df77d4a0e3b52ca03d8a5c0744634683e702e986'
>>> import coincurve
>>> privkey = coincurve.PrivateKey.from_int(888)
>>> privkey.sign(msg, hasher=None).hex()
'3044022021b5cf674240ed0ac38464cba43313469dd7f270a82d7bf31a0a01e139f55e50022018d90d95e51e9bf1d3798c3d0b9f02bd21e82cf6a8d1da74488af08337dad55f'
------------------

message = 9e7ab8c65790f4026b5c1dd1df77d4a0e3b52ca03d8a5c0744634683e702e986

signature = 3044022021b5cf674240ed0ac38464cba43313469dd7f270a82d7bf31a0a01e139f55e50022018d90d95e51e9bf1d3798c3d0b9f02bd21e82cf6a8d1da74488af08337dad55f

signature_with_len = 46 3044022021b5cf674240ed0ac38464cba43313469dd7f270a82d7bf31a0a01e139f55e50022018d90d95e51e9bf1d3798c3d0b9f02bd21e82cf6a8d1da74488af08337dad55f


TX2
version: 01000000
01
  txid: a6842993cbf1dfcfb111036fed900d5a0a64c45d23746df848dbdf4b3c772aed
  vout: 00000000
  sciptSig: 47 463044022021b5cf674240ed0ac38464cba43313469dd7f270a82d7bf31a0a01e139f55e50022018d90d95e51e9bf1d3798c3d0b9f02bd21e82cf6a8d1da74488af08337dad55f
  sequence: feffffff
01
  amount: 101e000000000000
  scriptPubKey: 23 2103c8edf725b59d9f370870a5dcd5e70b0baea493a5b85cb227c1ef6a8e8cdad8fbac
locktime: 00000000

0100000001a6842993cbf1dfcfb111036fed900d5a0a64c45d23746df848dbdf4b3c772aed0000000047463044022021b5cf674240ed0ac38464cba43313469dd7f270a82d7bf31a0a01e139f55e50022018d90d95e51e9bf1d3798c3d0b9f02bd21e82cf6a8d1da74488af08337dad55ffeffffff01101e000000000000232103c8edf725b59d9f370870a5dcd5e70b0baea493a5b85cb227c1ef6a8e8cdad8fbac00000000

CONSOLE
-----------------
testmempoolaccept '["0100000001a6842993cbf1dfcfb111036fed900d5a0a64c45d23746df848dbdf4b3c772aed0000000047463044022021b5cf674240ed0ac38464cba43313469dd7f270a82d7bf31a0a01e139f55e50022018d90d95e51e9bf1d3798c3d0b9f02bd21e82cf6a8d1da74488af08337dad55ffeffffff01101e000000000000232103c8edf725b59d9f370870a5dcd5e70b0baea493a5b85cb227c1ef6a8e8cdad8fbac00000000"]'

[
  {
    "txid": "e40cffb1d7345c62536422f61bd934474ff7db884fa152e7eb7cb366a0c0d397",
    "wtxid": "e40cffb1d7345c62536422f61bd934474ff7db884fa152e7eb7cb366a0c0d397",
    "allowed": false,
    "reject-reason": "missing-inputs"
  }
]
-------------------
Someone must have spent my utxo already since it was on testnet and i waited a day?

Second attempt lives on logs2.txt